:100000000C9495020C94DC020C94DC020C94DC023F
:100010000C94DC020C94DC020C94DC020C94DC02E8
:100020000C94DC020C94DC020C94B3210C94872217
:100030000C94331C0C94DC020C94DC020C94DC0257
:100040000C94DC020C94DC020C94DC020C94DC02B8
:100050000C94DC020C948A1C0C94DC020C94DC02E0
:100060000C94DC020C94DC020C94DC020C94DC0298
:100070000C94DC020C94DC020C94DC020C94DC0288
:100080000C94DC020C94DC020C94DC020C94DC0278
:100090000C94DC020C94DC020C94DC020C94DC0268
:1000A0000C94DC020C94DC020C94DC022C20002E5C
:1000B0002000A85D12000F0006001A0015000000C5
:1000C0000000170012001500090013002A002B0081
:1000D00004001100070016001000000000000F00CF
:1000E00008000C000B0017002800290014001B005A
:1000F00019000A000500080016000E0018001C0078
:100100000D001D00E40000000000E300E1000254C7
:100110002C00A65DA75D2C000154E50065000000E1
:1001200000000100330030022702300031020000DD
:100130000000310034022E023800250201000100C7
:100140002F0226022F003302360000000000370085
:100150002E002D0034002D02010001001E0223029A
:100160003602370238021E00270024022202210232
:1001700020021F0201000100010001000100010036
:100180000100010001000100010001000100010067
:10019000010001001E001F002000210022000000BD
:1001A0000000230024002500260027000100010094
:1001B0007B007C00EF00F1003600000000003700FB
:1001C000510050004F005200010001004C00E200BD
:1001D0007D00F000350038002D00F1004E004A008F
:1001E0004D004B0001000100010001000100010071
:1001F00001000100010001000100010001000100F7
:10020000010044454255473A2064697361626C6558
:10021000642E0A0044454255473A20656E61626C7F
:1002200065642E0A0000000000000000002A2B2850
:1002300000000000000000000000000000000000BE
:1002400029000000002C1E342021222434262725DA
:100250002E362D3738271E1F202122232425263312
:1002600033362E37381F0405060708090A0B0C0D14
:100270000E0F101112131415161718191A1B1C1D26
:100280002F3130232D350405060708090A0B0C0D04
:100290000E0F101112131415161718191A1B1C1D06
:1002A0002F3130354C00000000000000000000003D
:1002B000000000000000000000000000000000003E
:1002C0000000000000000000007E0F00D4FFFFFFD0
:1002D000C7000000784F6E6573686F743A206163E1
:1002E000746976653A2025640A000A002530325880
:1002F000006B6579626F6172645F7365745F6C65D2
:10030000643A20000A002530313662003A20002588
:10031000303258000A722F63203031323334353690
:100320003738394142434445460A00290A002575B9
:10033000002F002575005D2800256400200025643D
:1003400000200025640020002564007C0025303258
:1003500058006D6F7573656B6579205B62746E7C98
:10036000782079207620685D287265702F61636C33
:10037000293A205B000A002530325820006B65794D
:10038000626F6172645F7265706F72743A20005BB5
:10039000735D005B575D005B535D005B525D005B0E
:1003A000445D005B435D00100348006F007200690C
:1003B000007A006F006E0000002003530074006597
:1003C00000760065006E0020004B00610072007234
:1003D000006D0061006E006E000000040309040956
:1003E000025B00030100A0FA0904000001030101FF
:1003F00000092111010001224000070581030800C6
:100400000A09040100010300000009211101000193
:10041000227B000705820320000A09040200020370
:1004200000000009211101000122220007058303B9
:100430002000010705030320000112010002000053
:100440000008EDFE00000100010200010631FF0975
:1004500074A1010975150026FF0095207508810219
:100460000976150026FF00952075089102C0050148
:100470000902A10185020901A10005091901290844
:100480001500250195087501810205010930093122
:100490001581257F95027508810609381581257F0C
:1004A000950175088106050C0A38021581257F958E
:1004B0000175088106C0C005010980A101850319E5
:1004C000012AB700150126B700950175108100C0FB
:1004D000050C0901A101850419012AA002150126B4
:1004E000A002950175108100C005010906A1010552
:1004F0000719E029E7150025019508750181029586
:1005000001750881010507190029FF150026FF0064
:1005100095067508810005081901290595057501DD
:100520009102950175039101C00011241FBECFEF08
:10053000DAE0DEBFCDBF04B603FE27C080917502AE
:1005400090917602A0917702B09178028730904B1B
:10055000A740B04BD1F4109275021092760210921F
:1005600077021092780214BE84B7877F84BF0FB6DB
:10057000F894A89580916000886180936000109243
:1005800060000FBEE0E0F8E3099511E0A0E0B1E003
:10059000EEECF9E402C005900D92AC39B107D9F741
:1005A00022E0ACE9B1E001C01D92A537B207E1F746
:1005B0000E94B7150C94C1240C940000FF93EF9394
:1005C000E0919C01F0919D01309709F00995EF9120
:1005D000FF910895FC018591803011F0EFDFFBCF92
:1005E0000895FF27E0E230E247FF0CC0419597FFF6
:1005F00009C0EDE26095709580959095611D711D23
:10060000811D911D27FF02C0219530E350E2AA27EA
:10061000660F771F881F991FAA1FA41710F0A41B2D
:1006200063955A95A9F7AA3008F0A95FA05DAF932A
:10063000F395611571058105910541F7ED3211F4CE
:10064000EF93F395F21718F43F93F395FBCF8F9147
:10065000B5DFFA95E1F70895E991F9918591803038
:1006600021F0853219F0AADFF9CF089520E0E8944F
:1006700055915532C1F3503311F4689455915A3362
:1006800048F4505390F3220F022E220F220F200D18
:10069000250FF4CF0EF4219589919991533619F3D2
:1006A000533729F1533559F1BC0188279927E8942C
:1006B0005C3621F48991999168945591543639F4B6
:1006C00046EF7EF077FF0DC08FEF9FEF0AC05537E2
:1006D0004AE039F0583540E121F0523642E009F065
:1006E0000895FF93EF937DDFEF91FF91B7CFFF93D5
:1006F000EF93FC0181918030B9F360DFFBCFFF9372
:10070000EF9368DFF1CFDF93CF93CDB7DEB72596B8
:10071000A3DFCF91DF910895883A2DE5920781F10B
:10072000811530E5930748F0811545E5940700F100
:100730009C01385521153240D8F03091510220915A
:100740005002231708F4232F20939E01FB012281DE
:100750008115F0E49F0768F0811530E5930728F0D4
:10076000AC0150564115504220F49927211103C085
:1007700008952223E9F39093A00180939F010895A7
:10078000FB018281882351F080919E010E94900795
:1007900080919F019091A0010C94340480919F015D
:1007A0009091A0010E944B0480919E010C949707A8
:1007B0000F931F93CF93DF938C01EB010E948C0367
:1007C0000E94390F809350020E945F0F8093510264
:1007D000063A8DE5180749F0073A1D4571F081E0AA
:1007E000DF91CF911F910F9108958A818823B9F3EA
:1007F0008FEA90E00E940E06F2CF8A81882379F377
:100800008CEA90E0F7CF9C013A9521153F4150F5D5
:10081000FC01EE27F170BC0166277270AC01442721
:1008200054709C012227387094FF0EC080E1EF2B9A
:1008300009F480E0672B09F08062452B09F08064A1
:10084000232B89F08068089581E0EF2B09F480E084
:10085000672B09F08260452B09F08460232B19F087
:100860008860089580E00895CF93DF93EC010E94A3
:1008700003049E01205E31092830310510F02097D5
:1008800039F40E9490078C2FDF91CF910C94890648
:100890000E94070AF8CFCF93DF93EC010E941B0759
:1008A000CE010E9403049E01205E310928303105EB
:1008B00010F0CD2B21F4DF91CF910C949707DF91AD
:1008C000CF910C940E0A81E008950C94D8030895FA
:1008D0000C9467041F93CF93DF9300D000D00F9246
:1008E000CDB7DEB749835A836B833091A1018981EB
:1008F0009A8131111DC06623B9F02223A9F00E940C
:10090000D60B182F682F89819A810E94820B6981EA
:100910007A81812F0F900F900F900F900F90DF91A1
:10092000CF911F910C94DF120E94AE0B182FEFCFC6
:100930000E94D60B69817A81EDCFFC01262F408180
:1009400051816281738184810C946A0481E00895ED
:10095000CF93DF93EC0160E00E949D04BE01DF9124
:10096000CF910C9468040E94EC130E943D060C94F5
:1009700011140C94141480E00C943E06089508950C
:100980000E942B0A0E94BF042FEF84E39CE02150B9
:1009900080409040E1F700C000000C94AE1C0F9323
:1009A0001F93CF93DF938C0161E00E949D04EC01C3
:1009B000B8010E9465048823C1F1B801CE010E94EC
:1009C000911A882391F1B801CE010E94D118882391
:1009D00061F1B801CE010E94FB19882331F1F801C1
:1009E0008281882361F0CF3DFCE5DF07B1F170F42F
:1009F000C115ECE5DE07B9F0C130DC45E1F0C80116
:100A0000DF91CF911F910F910C946304CC358DE54C
:100A1000D80749F1CD35DC0719F1CB35DD4579F73C
:100A20000E941A10ECCF0E94C00480E0DF91CF91A9
:100A30001F910F91089590912302892F8E7F90FF2F
:100A400081608093230280FF05C084E192E00E94D0
:100A5000EA02EBCF82E092E0FACF0E94CB10E5CF22
:100A60000E941110CCCF0E941D10C9CF0C94BE045F
:100A70000E94ED1A0E943E060C943605DF92EF921A
:100A8000FF920F931F93CF93DF93E82FF0E0EB5D7E
:100A9000FD4FD490282F26952695269530E0F90114
:100AA000EB53FD4F0491877010E0082E02C015959E
:100AB00007950A94E2F701701127F901EB54FD4FF5
:100AC000E490F12C082E02C0F594E7940A94E2F722
:100AD00091E0E922FF24F901EB55FD4FC491D0E0EC
:100AE00002C0D595C7958A95E2F7C170DD2701153B
:100AF000110519F081EE0E948906E114F10419F044
:100B000086EE0E9489068D2D0E948807EF2819F035
:100B100086EE0E941B07012B19F081EE0E941B0735
:100B2000CD2B51F08CE2DF91CF911F910F91FF906F
:100B3000EF90DF900C948807DF91CF911F910F9178
:100B4000FF90EF90DF900895EF92FF920F931F9325
:100B5000CF93DF938C01F62E8AE0E82EF801849182
:100B6000882309F454C0813009F04DC0E801219672
:100B7000FE018491813091F42196FE0184910E94BE
:100B800088078E010F5F1F4F8F2D815038F3EFE9DB
:100B9000FFE03197F1F700C00000F7CF823039F461
:100BA000E8012296FE0184910E948906EACF8330F3
:100BB00039F4E8012296FE0184910E941B07E1CFDF
:100BC0008430F9F6E8012296FE01249190E080E05D
:100BD000FE0131962053330B2A30310548F001973E
:100BE00080F2EFE9FFE03197F1F700C00000F7CFA6
:100BF000E89EA001E99E500D1124C901840F951FA4
:100C00002491EF01E5CF0E943E05E801BACFDF91C4
:100C1000CF911F910F91FF90EF90089560E00C9499
:100C2000A405829590E09C01220F331F220F331FF1
:100C30002C7C95958795959587958373282B30E027
:100C4000C901880F991F8A7A359527952575822BBA
:100C50000895CF93DF93D92F0E941106C82F8D2FAF
:100C60000E9411069C2FDF91CF91089508950C9456
:100C7000360681E008950C9439060895CF93C82F65
:100C80000E9437068C2FCF910C943B06CF93DF93B5
:100C9000CDB7DEB72B970FB6F894DEBF0FBECDBF32
:100CA0004F83588769877A878B8761110E94590F14
:100CB0001E821D8285E0FE013796DE0111960190AD
:100CC0000D928A95E1F78C819D81892B89F4498168
:100CD0005A816B817C818D819E810E947A0E2B9638
:100CE0000FB6F894DEBF0FBECDBFDF91CF91089550
:100CF00089819A8189238F3F51F3CE0101960E9409
:100D0000A6048111E4CFEBCFFC01808191810C948A
:100D1000180CCF93C82F882309F48BC08238C1F4F4
:100D20000E94ED1A81FD85C089E30E94140F0E9484
:100D30007C0F2FEF81EE94E0215080409040E1F74E
:100D400000C0000089E30E941B0FCF910C947C0F20
:100D50008338A1F40E94ED1A80FD6BC083E50E94E8
:100D6000140F0E947C0F2FEF81EE94E02150804001
:100D70009040E1F700C0000083E5E5CF8438A1F49E
:100D80000E94ED1A82FD55C087E40E94140F0E9454
:100D90007C0F2FEF81EE94E0215080409040E1F7EE
:100DA00000C0000087E4CFCF8CEF8C0F813A90F425
:100DB0006C2F80910201909103010E94911B882366
:100DC00029F08C2F0E941B0F0E947C0F8C2F0E94F9
:100DD000140FBBCF80E28C0F883048F4C77081E0DD
:100DE00001C0880FCA95EAF70E943C0FAECFEBE531
:100DF000EC0FE33040F4F0E0E95BFE4F808190E0DF
:100E0000CF910C94531BE8E5EC0FE73150F4F0E080
:100E1000EE0FFF1FE75EFE4F80819181CF910C9412
:100E2000691BCD3E30F08C2F0E944716CF910C9459
:100E30001A17CF910895882309F452C0823871F4AB
:100E40000E94ED1A81FF4CC089E30E94140F0E949A
:100E50007C0F89E30E941B0F0C947C0F833859F49C
:100E60000E94ED1A80FF3CC083E50E94140F0E948F
:100E70007C0F83E5EFCF843859F40E94ED1A82FF8E
:100E80002FC087E40E94140F0E947C0F87E4E2CFFA
:100E90009CEF980F913AF0F290E2980F983050F44E
:100EA000877091E001C0990F8A95EAF7892F0E9417
:100EB000420FD2CF9BE5980F933020F490E080E072
:100EC0000C94531B98E5980F973120F490E080E044
:100ED0000C94691B8D3E20F00E94A1160C941A17E9
:100EE00008951F93CF93DF93182FEB010E9489067B
:100EF000209731F4812FDF91CF911F910C941B0724
:100F00008FE99FE00197F1F700C000002197F0CF33
:100F100070E060E0893311F460E570E00C947107D3
:100F2000882321F00E943C0F0C947C0F08958823A5
:100F300021F00E94420F0C947C0F0895BF92CF9233
:100F4000DF92EF92FF920F931F93CF93DF936C0189
:100F5000D62FC72FFC011281F580F2949FE0F92271
:100F60000E94320FE82E8823B9F0E12E1123A1F060
:100F70008C2F807F803421F080E28D0F8830D0F07C
:100F80008091530282FD16C082E00E94CD0F0E9424
:100F9000320F91E0E82EE926BC2EB2948FE0B82201
:100FA000FBE0FB1508F468C0EB2DF0E0ED53FB4DC2
:100FB0000C945824E12CF0CF0C2F0F70C07F11F04F
:100FC0000295007F112399F0002359F080E28D0FE4
:100FD000883010F0D11107C0802F0E943C0F0E9472
:100FE0007C0F8D2F41C0802F0E944C0FF8CF8D2F8A
:100FF0000E941B07002309F43FC080E28D0F883058
:1010000010F0D11104C0802F0E94420F03C0802F26
:101010000E94520F0E947C0F2FC00C2F0F70C07FB8
:10102000C03211F00295007FDD2381F0D13009F448
:1010300069C0112309F473C0FF2009F469C0F601E7
:10104000858180FFCECF8F70858362C080915302EF
:1010500082FF38C0112359F0002329F0802F0E940D
:101060003C0F0E947C0F80E00E94890605C080E052
:101070000E941B070111C7CFEB2DE850FF0B3497DF
:1010800020F40E94ED1A0E943E06EE2009F472C17F
:101090000E942E0F80FD6EC1F60112820E94280F61
:1010A0000E94E60AC6010E94DB090E94280FDF9118
:1010B000CF911F910F91FF90EF90DF90CF90BF9055
:1010C0000C94070B112389F0F11006C00E945F0FEA
:1010D000802B0E949007D0CF21E0F212F7CF0E9420
:1010E0005F0F802B0E94650FC7CFF11006C00E94D2
:1010F000720F802F0E949707BFCF31E0F31609F4DB
:10110000BBCFF5CF112331F085E08F1508F4B4CFB4
:10111000802FDFCF94E09F1508F4AECFEACFFF20F9
:1011200041F3D93349F4FFEF27EE33E0F15020408B
:101130003040E1F700C000008D2F0E941B079CCFBC
:101140008C2F86958695837069F0813009F094CF55
:101150008D2F9C2F9370111102C090E080E00E94AF
:10116000691B8ACF8D2F9C2F9370111102C090E0C4
:1011700080E00E94531B80CF8D2F112329F00E9405
:1011800047160E941A1778CF0E94A116FACF8C2F0B
:10119000837009F041C011116FCF4D2F42954695D4
:1011A0004770440F440F0D2F0F7010E030E020E027
:1011B000042E04C0000F111F221F331F0A94D2F700
:1011C00060E070E0CB01D4FF0FC06FE070E080E022
:1011D00090E004C0660F771F881F991F4A95D2F7C9
:1011E0006095709580959095C695C695C370602B57
:1011F000712B822B932BC23049F058F4C13019F077
:101200000E94980A39CF0E94860A36CF0E94AA0A05
:1012100033CF0E94840A30CF8695112311F08C2F92
:101220008170882309F428CF4D2F42954695477049
:10123000440F440F0D2F0F7010E030E020E0042E1B
:1012400004C0000F111F221F331F0A94D2F760E061
:1012500070E0CB01D4FF0FC06FE070E080E090E061
:1012600004C0660F771F881F991F4A95D2F76095B3
:10127000709580959095C695C695C370602B712B1F
:10128000822B932BC23049F058F4C13019F00E94E0
:101290005D0BF2CE0E944B0BEFCE0E946F0BECCE9B
:1012A0000E94C00AE9CECF70112329F08C2F0E9432
:1012B000E60A8D2F0ECF8D2F0E9497078C2F0E944C
:1012C000070BDACED23F51F160F4D03FB9F0D13FF5
:1012D00081F0112309F449C0F11083CE8C2F8F7156
:1012E00021C0D33F11F1D43FA1F78091530282FF77
:1012F00026C08C2F8F71112311F314C0112349F0D4
:1013000084E08F1508F4B8CE8C2F8F710E942A0BC1
:10131000B3CE95E09F1508F4AFCEF6CF8C2F8F712A
:101320001111CDCF0E94E60AA7CE112329F08C2FF0
:101330008F710E94D10AA0CE0E94CC0A9DCE1123AB
:1013400049F0CF718C2F0E94E60A63E08C2F0E9437
:10135000B20F92CE81E00E94CD0FE1E0EF1508F0D0
:101360008BCE82E00E94CD0F87CEF110DACE8C2F8B
:101370008F71A5CFDF91CF911F910F91FF90EF90CB
:10138000DF90CF90BF9008950F931F93CF93DF937B
:10139000EC01688179818A810E94220C8C010E9473
:1013A000810B0E94830AB801CE01DF91CF911F917A
:1013B0000F910C949E07CF93DF93EC018B819C815E
:1013C000892B29F08881998189238F3F59F4DF91F6
:1013D000CF910895CE010E94C409CE01DF91CF9133
:1013E0000C94A804CE010E94CF048111F3CF0E9477
:1013F000320F882361F38A81882349F38091530255
:1014000082FDE5CF82E0DF91CF910C94CD0F882350
:1014100021F00E944C0F0C947C0F0895882321F03A
:101420000E94520F0C947C0F089590E080E00E947F
:10143000531B90E080E00E94691B0E94590F0E949C
:101440005C0F0E947C0F0E94C3180C941A170E9414
:10145000220F0C94150A0E94490F0C94270AE92FB9
:10146000E295EF70E250EE3070F4F0E0E153FB4DA6
:101470000C945824803F19F020F4883E20F481E039
:101480000895843FE1F380E00895883EC0F3813FF2
:10149000D1F7F5CF93FB882780F90895FC0180816F
:1014A00091810E94180C0C942F0ACF93DF9300D0E7
:1014B00000D00F92CDB7DEB70F900F900F900F9026
:1014C0000F90DF91CF910895CF93DF9300D000D09C
:1014D00000D0CDB7DEB726960FB6F894DEBF0FBEAC
:1014E000CDBFDF91CF91089508950C94740A0E94A6
:1014F000750A6093C9017093CA018093CB019093E0
:10150000CC010C94150A08950C94770A0F931F933D
:101510000091C9011091CA012091CB013091CC01F9
:10152000602B712B822B932B1F910F910C94770AB8
:101530000F931F930091C9011091CA012091CB0113
:101540003091CC0160237123822393231F910F914B
:101550000C94770A0F931F930091C9011091CA014F
:101560002091CB013091CC016027712782279327EE
:101570001F910F910C94770A0C94740A0C94BC0A76
:101580000E94BE0A6093C5017093C6018093C70193
:101590009093C8010C94150A60E070E0CB010C94A4
:1015A000C00A0F931F9341E050E060E070E08A01B1
:1015B0009B0104C0000F111F221F331F8A95D2F711
:1015C000C901B8011F910F910C94C00A0F931F938A
:1015D00041E050E060E070E004C0440F551F661F1A
:1015E000771F8A95D2F78091C5019091C601A0918D
:1015F000C701B091C8018A019B01082B192B2A2B26
:101600003B2BC901B8011F910F910C94C00A0F9395
:101610001F9341E050E060E070E004C0440F551FAC
:10162000661F771F8A95D2F7CB01BA016095709536
:10163000809590950091C5011091C6012091C70138
:101640003091C80160237123822393231F910F914E
:101650000C94C00A0F931F9341E050E060E070E0EB
:1016600004C0440F551F661F771F8A95D2F78091DB
:10167000C5019091C601A091C701B091C8018A012E
:101680009B01082719272A273B27C901B8011F9169
:101690000F910C94C00A0F931F930091C5011091F4
:1016A000C6012091C7013091C801602B712B822B9C
:1016B000932B1F910F910C94C00A0F931F930091CD
:1016C000C5011091C6012091C7013091C801602366
:1016D0007123822393231F910F910C94C00A0F93BF
:1016E0001F930091C5011091C6012091C70130914F
:1016F000C80160277127822793271F910F910C94AF
:10170000C00A08952EE0929F800D1124982F9770A3
:1017100041E001C0440F9A95EAF786958695869533
:1017200095E0899FF0011124EE55FE4F90E080E096
:1017300070E05191DF0111979B01082E02C0369590
:1017400027950A94E2F72170219525272423252740
:101750002C9301968530910561F708952EE0929FB4
:10176000800D1124982F977086958695869525E093
:10177000829FF0011124EE55FE4F50E040E080E0E2
:10178000219130E0092E02C0369527950A94E2F7A0
:1017900021703327042E01C0220F0A94EAF7822B0E
:1017A0004F5F5F4F4530510559F70895BF92CF9273
:1017B000DF92EF92FF920F931F93CF93DF938C01F1
:1017C000C090C501D090C601E090C701F090C8015B
:1017D0008091C9019091CA01A091CB01B091CC0137
:1017E000C82AD92AEA2AFB2ACFE1D0E0BC2ED701A9
:1017F000C6010C2E04C0B695A795979587950A94B7
:10180000D2F780FD0EC0219788F7B12C8B2DDF9188
:10181000CF911F910F91FF90EF90DF90CF90BF90ED
:101820000895B8018C2F0E94F312019761F3EECF57
:10183000CF93DF93EC010E94D60BBE01DF91CF91D5
:101840000C94F3121F93CF93DF93EB019091A101BE
:10185000992331F0CB01DF91CF911F910C94180C9B
:10186000882379F0CB010E94D60B182F682FCE0168
:101870000E94820BBE01812FDF91CF911F910C94AA
:10188000F312CB010E94AE0B182FF4CF1F93CF930E
:10189000DF93C091CD0116E08091CE018C1304C07E
:1018A000DF91CF911F910895D0E01C9FF0011D9F03
:1018B000F00D1124E153FE4F40815181628173810B
:1018C000848195810E94640A2196C770E5CF40917A
:1018D000FF0150910002609101027091020280911B
:1018E0000302909104020C94640AFF920F931F93D9
:1018F000CF93DF9380910402807FD1F48091010225
:101900008823B1F08091CD011091CE016091FF014B
:1019100070910002A0910202B0910302062F0723EA
:10192000C0910001D091010196E0F92E181306C074
:10193000DF91CF911F910F91FF90089590E0109744
:1019400011F00F3F19F401968770F0CFF89E9001C7
:10195000F99E300D1124F901E153FE4F41814713E7
:10196000F2CF40814613EFCF42814111ECCF43814A
:1019700054814A1B5B0B4C175D0728F780910402CA
:101980008F70806180930402F901EC52FE4F8081D8
:101990008F70806180838FEF91E00E94DB09DF917F
:1019A000CF911F910F91FF900C94460CAF92BF9274
:1019B000CF92DF92EF92FF920F931F93CF93DF931B
:1019C000CDB7DEB761970FB6F894DEBF0FBECDBFBF
:1019D0008C0185E0F801DE011D9601900D928A953B
:1019E000E1F7F801E2808FEFC82E81E0D82E6091F8
:1019F0000202709103026115710509F45FC19091B3
:101A0000FF0120910002892F82238F3F09F456C1E4
:101A100040815181A380B480F0900102F501E61B62
:101A2000F70BBF01E0910001F0910101FF2009F4E3
:101A3000F6C080910402382F307F6E177F0708F0C0
:101A4000AFC0311179C0FE2C251323C0941321C0DF
:101A5000E1101FC08F708061809304020E94670CA8
:101A6000C6010E94DB0980910402F80185838F2D55
:101A700061960FB6F894DEBF0FBECDBFDF91CF9158
:101A80001F910F91FF90EF90DF90CF90BF90AF909C
:101A90000895AB2829F0842F85238F3F09F027C1B3
:101AA00080E0F82FF170DF2E80FF3CC08091CD01E7
:101AB0002091CE0136E0821315C04D875E878D855B
:101AC0009E850E94180C292F22952F702230F0F04D
:101AD000243018F59F70F1F0F8019581907FD1F4D2
:101AE000D12C1EC090E0389FF001399FF00D1124D9
:101AF000E153FE4F6181651306C06081641303C02A
:101B000062816E110FC001968770D5CF9F7011F062
:101B1000882331F3805E883018F3C8010E94DB0906
:101B2000FD2CA5CFEE2009F4A2CF809104028160A4
:101B300080930402F12C9BCF251306C0941304C09C
:101B4000F801EE2009F487C0C8010E944E0A8823DC
:101B500019F1EE2009F180910402803270F0209199
:101B6000FF013091000238872F831986BB86AA8631
:101B70008C87CE0107960E94DB0986E0F801AFEF63
:101B8000B1E001900D928A95E1F70E94750C0E94D8
:101B9000670CFF24F3946BCFC8010E94DB09F9CFD7
:101BA000311113C07A2DB98AA88A6E2D89890E94B5
:101BB000550A8FEF91E00E94DB0986E0F601119251
:101BC0008A95E9F70E94670CB5CF25130FC09413CF
:101BD0000DC0E1100BC0F8018583C8010E94DB092C
:101BE00086E0F60111928A95E9F741CFC8010E947B
:101BF0004E0A882389F2EE2079F280910402803225
:101C000008F4BBCF2091FF01309100023A83298371
:101C10001B82BD82AC828E83CE010196ACCF6E1743
:101C20007F0708F03EC0FE2CEE2009F4B5CF251347
:101C30002AC0941328C08091040280FD1BC0982FF5
:101C4000907FC1F0F8018583903F31F0982F907F0D
:101C5000905F8F70892B8583C8010E94DB0986E025
:101C6000F801AFEFB1E001900D928A95E1F70E9483
:101C7000670CFDCE86E0F801AFEFB1E001900D9268
:101C80008A95E1F7F4CEC8010E944E0A811175CF02
:101C900080910402816080930402C8010E94DB09E4
:101CA000E6CE7A2DB98AA88A6E2D89890E94550AB6
:101CB00086E0F60111928A95E9F7D9CFEE2009F472
:101CC0006BCFC8010E944E0AF82E882309F464CF16
:101CD00086E0F801AFEFB1E001900D928A95E1F74F
:101CE0008FEF91E00E9484060E94750CC0CF81E0C6
:101CF0008E25D7CE1F93CF93DF93CDB7DEB72C972A
:101D00000FB6F894DEBF0FBECDBF4F8358876987EB
:101D10007A878B879C87CE0107960E94D60C8823F2
:101D200069F08A859B85892B39F04F815885842FEE
:101D300085238F3F09F071C016E05FC086E0FE0189
:101D40003796DE01119601900D928A95E1F78A850A
:101D50009B85892B89F38F81988589238F3F61F338
:101D60002091CE0130E0C9010196877099274091FA
:101D7000CD014817190671F40E942B0A1092CE016A
:101D80001092CD0186E0EFEFF1E0DF011D928A9520
:101D9000E9F7D2CF96E0929FD001939FB00D112426
:101DA000A153BE4FFE01319601900D929A95E1F735
:101DB0008093CE010E94460CBFCF819FC0011124A9
:101DC00081539E4F0E94D60C8823E9F0E091CD010B
:101DD0001E9FF0011124E153FE4F40815181628129
:101DE0007381848195810E94640A8091CD0190E085
:101DF0000196877099278093CD018091CD019091B4
:101E0000CE018913DACF2C960FB6F894DEBF0FBE41
:101E1000CDBFDF91CF911F91089569857A858B851C
:101E20009C850E94640A88CF682F8091020190915E
:101E300003010C94C71B682F80910201909103014C
:101E40000C94C91B80910201909103010C94CB1B4F
:101E50008091050285958595859508958091050267
:101E60008770089590910502977081E009F480E0F1
:101E7000089580911102089590911102892B809309
:101E80001102089580959091110298239093110268
:101E9000089510921102089590911002892B809359
:101EA000100208958095909110029823909310024B
:101EB000089510921002089510920F0208958091D3
:101EC0000602089508950C94620F9091530292FDBA
:101ED00008C090910602981721F0809306020C9496
:101EE000630F089580910602882329F0109206025C
:101EF00080E00C94630F0895E0910201F0910301DA
:101F0000809111028083E0910201F09103018081B0
:101F100090911002892B8083E0910201F0910301DE
:101F2000808190910F02892B8083909106029923E2
:101F300081F0E0910201F09103018081892B80837F
:101F400080910201909103010E947F1B81110E94E8
:101F5000720F80910201909103010C94F91A089577
:101F60000C94AF0F9091530292FD10C098E0899F9E
:101F700090011124622B609305020E94E60A809171
:101F800005028595859585950C94B00F0C94E60A0D
:101F90001092050280E00C94B00F9091050280959C
:101FA000892380930502282F277091F4282F082E6B
:101FB000000C330B9217130659F09091530292FDC7
:101FC00007C08595859585950E94070B0C94C80FD1
:101FD0000895CF93C82F8091530282FB992790F9DF
:101FE0009C17E9F0C0FB82F9809353028091520262
:101FF000909153020E94471082E00E94CD0F809181
:10200000230280FF0CC01F92CF9385ED92E09F9337
:102010008F930E9483030F900F900F900F90CF919A
:1020200008958091530282FB882780F991E08927E7
:102030000C94E90F81E00C94E90F80E00C94E90F17
:102040006FEF7FEF90E080E00C94AB2490E080E0B5
:102050000E94872421E0893E9E4F09F020E0822FD4
:10206000089582E090E00C947F2483E090E00C944B
:102070007F24CF9384E090E00E947F24C82F82E2E7
:1020800090E00E947F24982F8C2FCF910895CF93BA
:10209000C92F682F84E090E00E948D246C2F82E28B
:1020A00090E0CF910C948D24AB01BC018FE090E0C7
:1020B0000C949F24AB01BC0183E190E00C949F241D
:1020C00060E070E0CB010C945A1060E070E0CB014E
:1020D0000E9454100C94601069EE7EEF90E080E056
:1020E0000E94AB2460E082E090E00E948D2460E0DA
:1020F00083E090E00E948D241092C9011092CA01E1
:102100001092CB011092CC0160E084E090E00E943C
:102110008D2460E082E290E00E948D2460E085E002
:1021200090E00E948D2460E086E090E00E948D2483
:102130006FEF87E090E00E948D2440E050E0BA010C
:1021400088E090E00E949F2460E08DE090E00E9493
:102150008D2440E050E0BA0188E190E00E949F2485
:1021600060E087E190E00E948D2440E050E0BA01F9
:102170008CE190E00E949F2470E060E080E290E0BB
:102180000E94AB2440E050E0BA0188E190E00E9458
:102190009F240C9465100C946C10682F8EE090E0D6
:1021A0000C948D240E946F1C60931F027093200278
:1021B000809321029093220260931B0270931C0271
:1021C00080931D0290931E02089585B7806885BF95
:1021D00085B7806885BF0895089508950C94EC1024
:1021E00008950C94F0100E94E5108FE89EE10E9483
:1021F000E31A0E94ED100C94EE1081E008950C9407
:10220000FD10089508950E9401110C9402110E947E
:102210005A1C0E9411150C94F110CF93C82F809175
:10222000230282FF1EC080FF1CC081EF92E00E944B
:10223000EA028091230280FF14C01F92CF938CEE9C
:1022400092E09F938F930E948303809123020F90CB
:102250000F900F900F9080FF04C08AEE92E00E94D2
:10226000EA028C2FCF910C943E068F929F92AF92F0
:10227000BF92CF92DF92EF92FF920F931F93CF9373
:10228000DF93CDB7DEB72A970FB6F894DEBF0FBE47
:10229000CDBF0E94261581110E94D21053E1852ED8
:1022A00052E0952E10E000E0A02E802F0E94161420
:1022B0006C01F401E190F1904F01E816F90609F480
:1022C0005CC08091230281FD0E941F14C7018C25F0
:1022D0009D25B12CEE24E394F12C9C012E213F216D
:1022E000232B09F444C00E94FF108823A9F0BE826A
:1022F000AF82CE20DF2081E0CD2809F480E08887FE
:102300000E94631C8160782F9A8789874E815F8144
:1023100068858A850E944606000F111FF801ED5E50
:10232000FD4F80819181E826F926F182E0820E94AA
:10233000B7170E94ED1A909112028917A9F10E9415
:10234000ED1A809312022A960FB6F894DEBF0FBEE4
:10235000CDBFDF91CF911F910F91FF90EF90DF9054
:10236000CF90BF90AF909F908F900C940D11B3942D
:10237000EE0CFF1CFEE0BF12B0CF0F5F1F4F04300A
:10238000110509F091CF8FEF89838A831B820E9408
:10239000631C8160782F9D838C8349815A816B8176
:1023A0008D810E944606C3CF2A960FB6F894DEBFF1
:1023B0000FBECDBFDF91CF911F910F91FF90EF9096
:1023C000DF90CF90BF90AF909F908F900895CF9364
:1023D000DF930E94F712EC01811521E5920708F0C6
:1023E00042C0811530E5930708F09DC0883E9105F5
:1023F00030F5803E910508F092C0883A910588F446
:10240000853A910508F084C08130910509F487C0B0
:10241000009709F484C0049708F081C0D0E0C0E0C0
:102420007EC08F3B9105D0F7C85AD0E0CC0FDD1F9E
:10243000C65BDE4F0990D881C02DD46470C0811571
:10244000904250F4C11581E0D80708F068C0CD3E35
:10245000D10520F3D06563C0C11590E4D907F0F22F
:10246000DF70D06A5CC0811525E5920700F5811503
:1024700034E5930708F08BC0811543E5940708F015
:1024800073C0C11582E5D80708F469C0CE01837016
:10249000992721E030E002C0220F331F8A95E2F72E
:1024A000C695C69580E2C89FE001112454C0C115AD
:1024B00099E5D907A8F4C11528E5D20708F06CC042
:1024C000C11536E5D30708F0A9CF8C2F0E948E13D3
:1024D000C82FD0E0DC2FCC27CC27DF71D0621FC003
:1024E000C1154AE5D40708F45CC0CE0190568115A9
:1024F000904208F093CF8D2F8F710E948E1390E041
:10250000982F882788279F719C012C2BE901E6CF03
:10251000C55AD0E0C858DE4FC881D0E0D064CE01A3
:10252000DF91CF910895E4E096958795EA95E1F7DC
:1025300083702C2F26952695237040E2249F9001CE
:102540001124382B8C2F8370C1E0D0E002C0CC0F57
:10255000DD1F8A95E2F7C22BD32BDC68E0CFDC2F9E
:10256000CC27C16FD06ADBCF8370992721E030E0A0
:1025700002C0220F331F8A95E2F7C695C69590E2F6
:10258000C99FE0011124C22BD32BDA68C8CFD82F02
:10259000CC27C46FD06AC3CFDC2FCC27C06FD06AE2
:1025A000BECF8C2F8F700E948E1334E0D695C795C6
:1025B0003A95E1F7CF709C2FEC01D069B0CF972FFF
:1025C00070E02EE0929F600D711D1124FB0198E3D5
:1025D000899FE00DF11D1124EE0FFF1FEE54FF4FF8
:1025E0008591949108950E94DF120C94E71182382E
:1025F0009105B1F1B0F48133910509F475C048F447
:102600008932910509F469C08A32910509F473C0D1
:1026100008958533910509F459C08933910501F175
:102620000895833E9105A9F138F4803E9105F9F0B3
:10263000823E910549F10895863E9105A9F1873EB4
:102640009105C9F1843E910519F52091530221FFAE
:102650001FC08091520284FD14C087EE90E008955F
:10266000209152022370A1F080EE90E00895209115
:10267000520220FD47C03091530230FF09C024FFB1
:1026800044C090E080E004C02091520222FDF7CFC8
:1026900008952091520222FD3BC03091530230FD3B
:1026A000E3CF24FFF5CFEDCF2091520223FFF0CFEF
:1026B00024FDE7CFD2CF2091520223FD2CC03091D0
:1026C000530231FFEECF84EE90E008952091520244
:1026D00025FFDECF89E290E008952091520225FF88
:1026E000D7CF85E390E008952091520226FFD0CF06
:1026F0008AE290E008952091520226FFC9CF81E33B
:1027000090E0089589E390E0089583EE90E00895C5
:1027100082EE90E0089586EE90E008959091520246
:1027200092FF06C0282F28712830F9F4877F846033
:1027300093FF06C0282F28712831F1F4877E846129
:102740002091530220FF06C0382F38713830D9F459
:10275000877F816021FF06C0282F28712831D1F49E
:10276000877E816194FD877E0895282F247124300F
:10277000F9F68B7F8860DCCF282F2471243101F794
:102780008B7E8861DDCF382F3171313019F78E7F24
:102790008860E0CF282F2171213121F78E7E88615A
:1027A000E1CF0C9420100E9426152FEF86E791E0D0
:1027B000215080409040E1F700C000000E942615A3
:1027C00080E00E94161480FF04C00E94D1130C9474
:1027D000AE1C08950C94D3130E942610811102C0E0
:1027E0000E94CB100E943110809323020E94391066
:1027F00090935302809352020E94EA130E94351074
:10280000682F70E090E080E00E94840A6091C5012A
:102810007091C6018091C7019091C8010C94BE0AC5
:1028200008950C94101408950C941314E82FF0E0FC
:10283000EE0FFF1FE45AFD4F808191810895CF92E2
:10284000DF92EF92FF920F931F93CF93DF9384E178
:1028500093E00E94EA028CE5E82E82E0F82ED0E0B8
:10286000C0E09FE0C92E93E0D92E06E013E0DF938D
:10287000CF93DF92CF920E9483038CE093E00E947B
:10288000EA02F701819191917F010E9429069F93AD
:102890008F931F930F930E94830384E093E00E9421
:1028A000EA0221968DB79EB708960FB6F8949EBFA0
:1028B0000FBE8DBFC430D105D1F6DF91CF911F91EE
:1028C0000F91FF90EF90DF90CF90089580EA8A9566
:1028D000F1F7089500C008950C946614F894E82F59
:1028E000E295EF70F0E031A1282F2F7081E090E0A9
:1028F00001C0880F2A95EAF7982F9095932391A30A
:1029000092A1892B82A378940895CF93DF9383E9D2
:102910000E946E1482E90E946E1481E90E946E1476
:1029200084EF0E946E14CBE7D1E089918F3F11F0C4
:102930000E946E1481E0C938D807B9F7DF91CF91B2
:102940000895AF92BF92DF92EF92FF920F931F9381
:10295000CF93DF938C01D62EC62FD0E0CE018757C0
:102960009E4F7C01FC0120812F3F09F44DC0F8945B
:10297000E22FE295EF70F0E031A12F7081E090E05E
:1029800001C0880F2A95EAF7932F982B91A392A163
:102990008095892382A378940E946A14EBE7F1E082
:1029A00049E851E021E030E0B12CA12C61916F3F6A
:1029B000A9F1A62FA295AF70B0E090968C9190E00F
:1029C0006F7002C0959587956A95E2F780FD26C0E5
:1029D000C901A82AB92A220F331F4E175F0731F702
:1029E000F70180818F3F11F00E946E1461E0A11405
:1029F000B10409F460E08D2D0E946C14CC0FDD1F32
:102A0000C00FD11FB982A882DF91CF911F910F9182
:102A1000FF90EF90DF90BF90AF90089590E080E03E
:102A2000D8CF0E94851488E0ECE5F2E0DF01982F12
:102A30001D929A95E9F7E4E5F2E0DF011D928A958F
:102A4000E9F784E00E9471150C94B304FF920F9390
:102A50001F93CF93DF93CDB7DEB728970FB6F894C7
:102A6000DEBF0FBECDBF8E010F5F1F4F88E0F801A4
:102A700011928A95E9F7F12C6F2DC8010E94A114DB
:102A8000F394F4E0FF12F8CF48E050E0B80184E599
:102A900092E00E947224FF24F394009709F4F12C31
:102AA000892B41F088E0F801A4E5B2E001900D9295
:102AB0008A95E1F72F2D44E06CE572E084E592E021
:102AC0000E9472150E94B9048F2D28960FB6F894B3
:102AD000DEBF0FBECDBFDF91CF911F910F91FF9051
:102AE00008950895FF920F931F93CF93DF93F82ECD
:102AF000092F162FD72FC42F222349F081E080936E
:102B000026020E94631C90932502809324028091E8
:102B100026028823A1F080912402909125020E9430
:102B20007B1C059760F0EF2DF02FA12FBD2F90E0BB
:102B300080E0D0E08C179D0744F010922602DF91D0
:102B4000CF911F910F91FF900895219131912D9375
:102B50003D930196EFCF0E940A1F0E9407110C942B
:102B6000161F0E941A1F0E9435110C94381F0E94D4
:102B7000EC1B0E94F11E0E94F3100E94AB150E94F4
:102B8000B1150E940311FBCF80912D0280FF12C06E
:102B90006091090185E0689FB001112475956795E2
:102BA0007595679560387105A8F561157105A1F1F6
:102BB000862F089581FF09C06091090185E0689F13
:102BC000B001112475956795EDCF6091090182FDE3
:102BD0000AC080912C028823D1F090910801609165
:102BE0000901891728F085E0689FB0011124DACF28
:102BF000869FB001112485E0869F9001879F300D4C
:102C00001124692F70E0C9010E944424CBCF65E0F4
:102C100070E0CECF8FE7089581E0089580912D0276
:102C200080FF0CC06091050170E075956795759502
:102C300067956115710549F1862F089581FF06C0DA
:102C40006091050170E075956795F3CF609105017E
:102C500082FD0BC090912B029923A1F06091040199
:102C600080910501961738F0682F70E06038710583
:102C700000F38FE70895899FC001112470E00E943E
:102C80004424F4CF61E070E0D7CF81E008958D3E19
:102C900031F40E94C41581958093310208958E3ECF
:102CA00019F40E94C415F8CF8F3E31F40E94C41568
:102CB0008195809330020895803F19F40E94C415D5
:102CC000F8CF893F29F40E940E16809332020895AE
:102CD0008A3F21F40E940E168195F7CF8B3F31F485
:102CE0000E940E1681958093330208958C3F19F44B
:102CF0000E940E16F8CF9FE0980F983070F4815F15
:102D0000990B21E030E001C0220F8A95EAF780910B
:102D10002F02822B80932F0208958D3F31F48091F2
:102D20002D02816080932D0208958E3F21F48091C1
:102D30002D028260F7CF8F3FB9F780912D0284601A
:102D4000F1CF409130028D3E59F48091310287FFDE
:102D50000DC01092310241110BC010922C0208C01C
:102D60008E3E81F48091310218169CF3442381F049
:102D70008091320290913302892B09F05AC010924F
:102D80002B0208958F3E49F447FFF0CF1092300296
:102D9000809131028111ECCFE0CF803F19F41416FD
:102DA000ACF3E4CF90913202893F29F41916F4F67E
:102DB00010923202DBCF8A3F19F497FFD7CFF8CFBA
:102DC000909133028B3F29F497FFD0CF10923302BA
:102DD000CDCF8C3F19F41916CCF3C8CF9FE0980FD4
:102DE000983090F4815F990B21E030E0B90102C086
:102DF000660F771F8A95E2F7CB01809590912F029D
:102E0000892380932F02B2CF8D3F31F480912D0220
:102E10008E7F80932D02AACF8E3F21F480912D02C8
:102E20008D7FF7CF8F3F09F0A1CF80912D028B7F4F
:102E3000F0CF08958091230283FF7EC082E593E066
:102E40000E94EA0280912F021F928F938DE493E0FB
:102E50009F938F930E9483038BE493E00E94EA0286
:102E600080913002282F082E000C330B3F938F9354
:102E700088E493E09F938F930E94830386E493E01A
:102E80000E94EA0280913102282F082E000C330B99
:102E90003F938F9383E493E09F938F930E948303E8
:102EA00081E493E00E94EA0280913202282F082EEA
:102EB000000C330B3F938F938EE393E09F938F939C
:102EC0000E9483038CE393E00E94EA028091330224
:102ED000282F082E000C330B3F938F9389E393E048
:102EE0009F938F930E94830386E393E00E94EA02FC
:102EF00080912C021F928F9383E393E09F938F9393
:102F00000E94830381E393E00E94EA0280912D02F4
:102F10001F928F938EE293E09F938F930E9483037F
:102F20008BE293E00E94EA028DB79EB74C960FB6F3
:102F3000F8949EBF0FBE8DBF0E94631C9C019091B0
:102F4000300280913102982B21F030932A02209395
:102F500029029091320280913302982B21F0309314
:102F60002802209327028EE292E00C94451BEF92F8
:102F7000FF920F931F93CF93DF9300D000D000D028
:102F8000CDB7DEB786E0EEE2F2E0DE011196019009
:102F90000D928A95E1F7E0903002F09031020091B5
:102FA00032021091330210923002109231021092CC
:102FB0003202109233028E2D8F2991F080912902D6
:102FC00090912A020E947B1CAC0190912C029923C3
:102FD00009F43FC080910A018417150608F447C020
:102FE000802F812B91F080912702909128020E94DE
:102FF0007B1CAC0190912B02992309F477C080913E
:1030000006018417150608F47FC080913002909164
:103010003102892B90913202892B90913302892BB6
:1030200011F00E941A1786E0FE013196AEE2B2E07E
:1030300001900D928A95E1F726960FB6F894DEBFBF
:103040000FBECDBFDF91CF911F910F91FF90EF90F9
:10305000089520910B018AE0289F900111242417E4
:10306000350708F0BDCF9F5F90932C0202C09F3FB1
:10307000D1F7EE2059F00E94C4159FEF1E140CF4F6
:1030800091E0899F802D112480933002FF2059F018
:103090000E94C4159FEF1F140CF491E0899F802DAE
:1030A00011248093310230913002332309F498CFF8
:1030B00020913102222309F493CF45EB3403C00160
:1030C0001124992359F09093300245EB2403900189
:1030D0001124332339F03093310282CF81E0809381
:1030E0003002F3CF81E0809331027ACF2091070143
:1030F0008AE0289F900111242417350708F085CF16
:103100009F5F90932B0202C09F3FD1F7002359F09D
:103110000E940E169FEF10160CF491E0899F802DEF
:10312000112480933202112359F00E940E169FEF52
:1031300011160CF491E0899F802D112480933302A5
:1031400030913202332309F460CF209133022223DD
:1031500009F45BCF45EB3403C0011124992359F0E6
:103160009093320245EB240390011124332339F06C
:10317000309333024ACF81E080933202F3CF81E073
:103180008093330242CF86E0EEE2F2E0DF011D924F
:103190008A95E9F710922C0210922B0210922D02C0
:1031A0000895CF93DF93EC01FB018281882309F41A
:1031B00020C1C430FDE5DF07C8F5CB3F9CE5D9074A
:1031C00030F49E0122503C452431310598F50E948F
:1031D00039109093530280935202C031FCE5DF070F
:1031E00009F4E0C008F061C0C8309CE5D90709F4D3
:1031F000CBC088F5C430FCE5DF0709F4B3C0E8F4C0
:10320000C2309CE5D90709F4A7C0809152028260C0
:10321000C330DC4509F4A3C080915202909153025F
:103220000E9447100E942B0A80E004C0C236EDE5E0
:10323000DE0769F2DF91CF9108958091520280619B
:10324000C630FCE5DF0709F48AC008F48FC080911E
:103250005202806284C0809152028D7FCC309CE506
:10326000D90709F47CC070F4809152028C60CA3096
:10327000FCE5DF0709F473C008F48AC080915202AC
:103280008E7F6DC080915202877FCE309CE5D9073A
:1032900009F465C0809152028B7FCF30DC4508F481
:1032A0005EC0809152028F7E5AC0CD3FFCE5DF07A1
:1032B00009F474C040F5C4319CE5D90709F48AC00B
:1032C00058F4C231FCE5DF0709F474C008F46EC09D
:1032D00080915202837F43C0CB3F9CE5D90709F41C
:1032E00049C008F04DC0C531DC4509F095CF80914B
:1032F000520282FB992790F921E0922790FB82F9F4
:1033000090FB83F92CC0C1308DE5D80709F458C073
:1033100088F4809153028360CF3FECE5DE0769F1CA
:10332000809153028D7FC115DD4538F180915302A4
:103330008C7F23C0C3308DE5D80709F458C008F44A
:1033400052C0C236DD4509F067CF90915202892FF5
:103350008F7E94FF806103C08091520281608093D0
:1033600052025ACF809152028460F9CF809152026A
:103370008860F5CF809153028160809353024CCFD7
:10338000809153028260F9CF809152028064E7CF2E
:103390000E942B0A809152028068E1CF80915302F3
:1033A0008E7FEBCF809152028F7DD9CF80915202D8
:1033B0008F7BD5CF0E942B0A809152028F77CFCF7F
:1033C00080915302982F909591708E7F892B90FB5E
:1033D00081F9D3CF0E942B0A90915202892F97FB3B
:1033E00087F98058BCCF81E00E94CD1015CF80E0D6
:1033F000FBCF81E01FCFCF93DF93EB0186319C455C
:1034000011F50E94390F9A81992399F08A7A91E0F7
:1034100009F490E090933402811109C089E20E947E
:10342000140F0E947C0F80E0DF91CF91089585E317
:10343000F6CF80913402811104C089E20E941B0FF3
:10344000F0CF85E3FBCF81E0EFCF0F931F93CF93B6
:10345000DF93C42FD22FFC0182818823C9F04093CF
:1034600037020E94631C909336028093350280E2FB
:103470008C0F883008F050C0C77081E001C0880F01
:10348000CA95EAF7DF91CF911F910F910C949007A5
:1034900010913702141335C0809135029091360295
:1034A0000E947B1C883C910560F5C0E2CD0F1D1782
:1034B000B9F080E2810F883040F4177081E001C0DC
:1034C000880F1A95EAF70E949707C83048F481E000
:1034D0009D2F977001C0880F9A95EAF70E94900778
:1034E000802F0E948807C830B8F4D77081E001C0EF
:1034F000880FDA95EAF7DF91CF911F910F910C9425
:10350000970780E28C0F883038F4C77081E001C0E3
:10351000880FCA95EAF7EFCFDF91CF911F910F91F6
:1035200008950F939C01CB01243F4CE5340759F1DA
:10353000A8F4293DFCE53F0701F12A3D4CE534079D
:10354000D1F1283D3C4591F406E221EE41EE68EDD3
:103550007CE50E94251A80E00F910895263FFCE546
:103560003F07E9F0B0F0273F3C45F9F0FC018281CC
:10357000882339F110923702EFCF07E225EE45EEAE
:1035800069ED7CE5E6CF06E221EE40EE64EF7CE5F6
:10359000E0CF07E225EE44EE65EF7CE5DACF06E208
:1035A00021EE42EE66EF7CE5D4CF07E225EE46EE53
:1035B00067EF7CE5CECF08E221E045EE6AED7CE5E1
:1035C000C8CF81E0C9CF90939D0180939C0108955D
:1035D00090933D0280933C020895E0913C02F0916B
:1035E0003D02309721F00190F081E02D099480E0B8
:1035F0000895EF92FF920F931F93CF93DF938C0167
:10360000E0913C02F0913D023097C1F10280F381DC
:10361000E02D09958091230282FF30C080FF04C015
:103620008DE793E00E94EA02D0E0C0E087E7E82E51
:1036300083E0F82E8091230280FF0EC0F801EC0F8A
:10364000FD1F80811F928F93FF92EF920E94830350
:103650000F900F900F900F902196C830D10551F721
:103660008091230280FF0AC085E793E0DF91CF912C
:103670001F910F91FF90EF900C94EA02DF91CF9190
:103680001F910F91FF90EF900895E0913C02F0910F
:103690003D02309739F022E0DC012C930480F58163
:1036A000E02D0994089520913A0230913B022817A9
:1036B000390771F090933B0280933A02E0913C020B
:1036C000F0913D02309721F00680F781E02D0994BA
:1036D000089520913802309139022817390771F086
:1036E0009093390280933802E0913C02F0913D02C0
:1036F000309721F00084F185E02D099408959C0114
:103700002E5F3F4FAC01485F5F4F80E024173507C5
:1037100009F40895F90191919F019923B9F38F5FFD
:10372000F5CF662349F0FC013296089621912617C1
:1037300029F0E817F907D1F780E0089581E00895AE
:103740009C01FC0132969FEF80E04191461751F0B9
:103750009F3F19F4411101C0982F8F5F8630A9F760
:103760009F3F09F40895290F311D97FD3A95F901FE
:1037700062830895FC01329608962191261303C0B6
:10378000DF0111971C92E817F907B9F708950C9417
:10379000A01B0C94BA1B029626E0FC0111922A95FC
:1037A000E9F7089508950C94D21B811105C081E0BA
:1037B00080933E020C94D31B82E0FACF83E0809387
:1037C0003E020C94D31B0C94D51B81E080933E02E7
:1037D0000C94D31B0C94E51B089580916C028430EB
:1037E00031F10E94BB0410923F0288E190E020E496
:1037F0000FB6F894A895809360000FBE20936000E8
:1038000083B7817F846083BF83B7816083BF7894EF
:10381000889583B78E7F83BF0FB6F894A895809163
:103820006000886180936000109260000FBE089570
:1038300008950895CF930E94181C0E9426150E9497
:10384000191CC0E08C2F0E941614892B31F4CF5F15
:10385000C430C1F780E0CF91089581E0FCCF0E9491
:103860002B0A0C9438051F921FB61F9211248F93B8
:103870009F93AF93BF9380913F02811113C08091BA
:10388000640290916502A0916602B0916702419630
:10389000A11DB11D8093640290936502A0936602FE
:1038A000B0936702BF91AF919F918F911F901FBE00
:1038B0001F90189582E084BD93E095BD9AEF97BD67
:1038C00080936E0008952FB7F894809164029091D0
:1038D0006502A0916602B09167022FBF08952FB7CD
:1038E000F8946091640270916502809166029091F3
:1038F00067022FBF08959C014FB7F894809164022E
:1039000090916502A0916602B09167024FBF821B41
:10391000930B089578941F921FB61F9211248F93D2
:103920009F93AF93BF938091640290916502A091A1
:103930006602B09167020196A11DB11D80936402D9
:1039400090936502A0936602B0936702BF91AF9116
:103950009F918F911F901FBE1F90189587E797E743
:10396000909301088093000888E19AE00FB6F894DC
:10397000A895809360000FBE90936000FFCF809168
:103980004E02089508959C0182E08093E9009FEF24
:103990008091E800915085FD06C085ED8A95F1F78C
:1039A00000009111F5CF8091E80085FF0CC050E038
:1039B00040E066E070E0C9010E94A81F8091E80025
:1039C0008E778093E8000895CF93DF93EC0181E038
:1039D0008093E9008FEF9091E800815095FD06C03B
:1039E00095ED9A95F1F700008111F5CF8091E800EF
:1039F00085FF14C050E040E068E070E0CE010E9416
:103A0000A81F8091E8008E778093E80088E0FE018F
:103A1000A6E4B2E001900D928A95E1F7DF91CF9193
:103A20000895809342027093440260934302809110
:103A30006C02843001F582E08093E9008FEF909171
:103A4000E800815095FD06C095ED9A95F1F70000CC
:103A50008111F5CF8091E80085FF0DC050E040E076
:103A600063E070E082E492E00E94A81F8091E80089
:103A70008E778093E8000895BC0184E00C94111DBA
:103A8000BC0183E00C94111D83EA93E00E94EA02DA
:103A900080916B02811109C00E9438210E949521FA
:103AA0008091E20084608093E20008958FE993E0C2
:103AB0000E94EA0210926B0208958BE993E00E9443
:103AC000EA020C94E51B87E993E00E94EA02609108
:103AD000680281E0611101C080E00C94DE1B83E983
:103AE00093E00E94EA0290916C0281E0943009F028
:103AF00080E0609168020C94E31B209141022F5FEB
:103B0000822F62E30E943824992319F02093410206
:103B1000089510924102809145028823F1F080912E
:103B20006C028430C1F49091E9009F702091EC0008
:103B3000822F817020FD80E8892B93E09093E9002B
:103B40009091EB0090FF04C09091EE0097FD08C0AB
:103B50008F708093E9001092450208951092F10051
:103B60009091E80095FDFACF9091E80090FFF0CF9A
:103B70009091E8009E779093E800EACF42E061ECF4
:103B800081E00E94B42042E261EC82E00E94B42015
:103B900042E261EC83E00E94B42090916C0281E0EB
:103BA000943009F080E0609168020C94D51B8091FC
:103BB0006E02833009F460C030F48130C9F1823084
:103BC00009F49CC008958A3009F488C08B3009F448
:103BD0006EC0893009F04FC080916D02813209F0CA
:103BE0004AC08091710290917202029708F043C01E
:103BF0008091E800877F8093E8008091E80082FF51
:103C000036C09091F3008091F200029731F48091D8
:103C1000F100813011F0863021F48091F100809321
:103C20004E028091E8008B778093E8000C94E820A6
:103C300080916D02813AF9F48091E800877F80934A
:103C4000E8008091710290917202892B61F468E022
:103C500086E492E070E00E94F71F8091E8008B7785
:103C60008093E800089560E090E080E0F3CF8091D9
:103C70006C028111C2CF089580916D02813AD9F70B
:103C80008091710290917202892BA9F78091E800CE
:103C9000877F8093E8008091E80080FFFCCF8091CF
:103CA00018018093F1008091E8008E77BDCF80915C
:103CB0006D02813201F78091710290917202892B1D
:103CC000D1F68091E800877F8093E8000E94E82089
:103CD00080916F02809318010C942B0A80916D02E1
:103CE000813249F68091E800877F8093E8000E9446
:103CF000E8208091700280934F02089580916D02B8
:103D0000813A09F0B8CF8091E800877F8093E8007E
:103D10008091E80080FFFCCF80914F02C2CF9FB717
:103D2000F894109245029FBF90916C02943009F074
:103D300048C02091E9002F703091EC00932F9170D2
:103D400030FD90E8922B23E02093E9002091EB00D6
:103D500020FF34C02091EE0027FF30C020914002A8
:103D6000222321F02091E80025FF28C01092400274
:103D700026E03091E80035FF14C08093F100809177
:103D8000E80085FD27C08091E80080FFFCCF80918E
:103D9000E8008E778093E8009F709093E90080E0C0
:103DA000089530916C02343049F43091EB0035FDC8
:103DB00005C0215041F481E0809340029F709093B0
:103DC000E9008FEF0895EFE9FFE03197F1F700C0C8
:103DD0000000CFCF8FB7F89421E0209345028FBF2A
:103DE000DBCF84B7877F84BF0FB6F894A895809106
:103DF0006000886180936000109260000FBE80E8D0
:103E000090E00FB6F89480936100909361000FBE2C
:103E10000C94EA1B0E9438210E949521E2EEF0E00A
:103E200080818460808378940C941D248CE091E0E0
:103E30000C94E81A80916C028530C9F48FE893E005
:103E40000E94EA0280916C02853011F00C942F1CC4
:103E50000E94ED1B80916A028823A1F30E941A1C24
:103E6000882381F30E94921F0E942B0AEBCF0895B2
:103E700008950C943B1F292F33272330310521F15E
:103E800068F42130310509F443C02230310509F4CA
:103E900044C090E080E030E020E026C021323105CF
:103EA00051F122323105A9F76330710590F7FB011A
:103EB000EE0FFF1FE057FE4F2081318163577E4F89
:103EC000FB01808190E010C099278130910581F03D
:103ED000009729F00297E9F6E7EAF3E002C0EBED7C
:103EE000F3E0849190E09F01FA01318320830895EB
:103EF000E9EBF3E0F6CF6330710558F6660F771FF4
:103F0000FB01EA56FE4F2081318189E090E0ECCF41
:103F100082E190E02AE334E0E7CF8BE590E02FEDFB
:103F200033E0E2CF80E189BD82E189BD09B400FEC2
:103F3000FDCF8091D8008F7D8093D8008091E000E4
:103F400082608093E0008091E00081FDFCCF0895C5
:103F5000AF92BF92CF92DF92FF920F931F93CF93B6
:103F6000DF936C01EB018A010E940721F82E811179
:103F700023C00115110539F0F80180819181C81B1A
:103F8000D90BC80ED91EB12CA12C2097A9F0809175
:103F9000E80085FD22C08091E8008E778093E800DC
:103FA00001151105A1F0F80180819181A80EB91EBB
:103FB000B182A08285E0F82E8F2DDF91CF911F91E5
:103FC0000F91FF90DF90CF90BF90AF9008950E9427
:103FD00007218823D1F2F82EEFCFF60181916F01EE
:103FE0008093F1002197FFEFAF1ABF0ACECFFC01FB
:103FF000809173029091740286179707A0F0611563
:10400000710529F49091E8009E779093E80090E084
:104010006115710551F4911108C08091E80082FF8B
:1040200034C080E00895BC01F2CF80916C028823F7
:10403000C1F18530C1F18091E80083FD30C08091ED
:10404000E80082FDEACF8091E80080FFE1CF809117
:10405000F3002091F200382F6115710519F0283016
:10406000310558F091E02830310509F090E02091B9
:10407000E8002E772093E800CBCF81918093F10068
:10408000615071092F5F3F4FE7CF80916C02882309
:1040900041F0853041F08091E80083FFBECF81E0A0
:1040A000089582E0089583E00895FC0180917302F1
:1040B0009091740286179707A0F06115710529F495
:1040C0008091E8008E778093E80090E0611571059B
:1040D00051F4911108C08091E80082FF35C080E062
:1040E0000895BC01F2CF80916C028823C9F185301C
:1040F000C9F18091E80083FD31C08091E80082FD24
:10410000EACF8091E80080FFE1CF8091F300209119
:10411000F200382F6115710519F02830310558F07B
:1041200091E02830310509F090E08091E8008E7729
:104130008093E800CBCF84918093F1003196615059
:1041400071092F5F3F4FE6CF80916C02882341F0C9
:10415000853041F08091E80083FFBDCF81E0089574
:1041600082E0089583E00895982F973028F08F70AB
:104170008093E90081E008959093E900242F762F41
:1041800050E0981731F07091EC002091ED005091C3
:10419000F00021FD02C09F5FE8CF3091EB003E7F31
:1041A0003093EB003091ED003D7F3093ED00309186
:1041B000EB0031603093EB007093EC002093ED0046
:1041C0005093F0002091EE0027FDE5CF80E00895A8
:1041D00080916D0287FF13C08091E80082FF06C0C6
:1041E0008091E8008B778093E80004C080916C0296
:1041F0008111F2CF089580916C028823D9F38091C8
:10420000E80080FFF8CF8091E8008E77ECCF209116
:10421000E4003091E50095E6A9012091EC00822FA1
:10422000817020FF06C08091E80080FF06C080E01A
:1042300008952091E80022FD1AC080916C02882325
:1042400089F0853089F08091EB0085FD0FC02091C9
:10425000E4003091E50042175307F9F29150E1F67E
:1042600084E0089582E0089583E0089581E0089550
:104270000E94A6210E94AE21E0EEF0E080818160E4
:104280008083E8EDF0E080818F77808319BCA7ED13
:10429000B0E08C918E7F8C9380818F7E8083109292
:1042A0006B0208950F931F93CF93DF930E94A62173
:1042B0000E94AE21C8EDD0E088818F778883888105
:1042C0008068888388818F7D888319BC10926C02F6
:1042D0001092680210926A021092690200EE10E0D9
:1042E000F80180818B7F808388818160888342E0B0
:1042F00060E080E00E94B420E1EEF0E080818E7FFB
:104300008083E2EEF0E0808181608083808188603C
:104310008083F80180818E7F80838881806188839B
:10432000DF91CF911F910F910895E8EDF0E080812A
:104330008F7E8083E7EDF0E080818160808384E080
:1043400082BF81E080936B020C945221E8EDF0E093
:1043500080818E7F80831092E20008951092DA00AF
:104360001092E10008951F920F920FB60F92112440
:104370002F933F934F935F936F937F938F939F936D
:10438000AF93BF93EF93FF938091E10082FF0BC047
:104390008091E20082FF07C08091E1008B7F8093D3
:1043A000E1000E947D1D8091DA0080FF19C080919C
:1043B000D80080FF15C08091DA008E7F8093DA00EC
:1043C0008091D90080FF96C080E189BD82E189BDDE
:1043D00009B400FEFDCF81E080936C020E94441D71
:1043E0008091E10080FF19C08091E20080FF15C03C
:1043F0008091E2008E7F8093E2008091E2008061F4
:104400008093E2008091D80080628093D80019BC2C
:1044100085E080936C020E94631D8091E10084FF1F
:104420002BC08091E20084FF27C080E189BD82E13A
:1044300089BD89B5982F917080FFFBCF8091D800FE
:104440008F7D8093D8008091E1008F7E8093E10082
:104450008091E2008F7E8093E2008091E200816093
:104460008093E20080916802882309F449C084E0C7
:1044700080936C020E946F1D8091E10083FF29C030
:104480008091E20083FF25C08091E100877F8093C7
:10449000E10082E080936C02109268028091E1005A
:1044A0008E7F8093E1008091E2008E7F8093E20016
:1044B0008091E20080618093E20042E060E080E071
:1044C0000E94B4208091F00088608093F0000E94E8
:1044D0005D1DFF91EF91BF91AF919F918F917F9162
:1044E0006F915F914F913F912F910F900FBE0F9061
:1044F0001F90189519BC10926C020E94561D70CF27
:104500008091E30087FD93E090936C02B3CF1F92FC
:104510000F920FB60F9211242F933F934F935F93F7
:104520006F937F938F939F93AF93BF93CF93DF93BB
:10453000EF93FF93D091E900DF708091EC00C82FDA
:10454000C17080FDC0E81092E9008091F000877F83
:104550008093F00078940E94CB221092E900809121
:10456000F00088608093F000CD2BCF70C093E900FD
:10457000FF91EF91DF91CF91BF91AF919F918F917B
:104580007F916F915F914F913F912F910F900FBE4F
:104590000F901F9018951F93CF93DF93CDB7DEB781
:1045A000AA970FB6F894DEBF0FBECDBF8DE692E09E
:1045B0002091F100FC012193CF01F2E085379F07A4
:1045C000B9F70E94D71D8091E80083FF1EC180913A
:1045D0006D0290916E029A3008F017C1E92FF0E059
:1045E000E352FB4D0C945824803899F0823809F03E
:1045F0000CC1809171028F70873008F006C18093E2
:10460000E9008091EB0085FB882780F91092E90092
:1046100006C08091690290916A0291118260909126
:10462000E800977F9093E8008093F1001092F100EA
:104630008091E8008E77E5C0882309F4D3C08230EA
:1046400009F0E3C080916F028111D6C080917102A0
:104650008F702FEF280F263008F0D7C08093E90025
:104660002091EB0020FFC8C0933031F48091EB0023
:1046700080628093EB00C0C09091EB0090619093BA
:10468000EB0021E030E001C0220F8A95EAF7209389
:10469000EA001092EA008091EB008860EACF811175
:1046A000B4C010916F021F778091E3008078812B56
:1046B0008093E3008091E800877F8093E8000E9468
:1046C000E8208091E80080FFFCCF8091E3008068C3
:1046D0008093E30082E0111183E080936C0295C027
:1046E0008058823008F091C080916F0290917002E2
:1046F0008C3D23E09207A1F583E08A838AE28983D7
:104700004FB7F894DE01139620E03EE051E2E32F2C
:10471000F0E050935700E49120FF03C0E295EF7062
:104720003F5FEF708E2F90E0EA30C0F0C7968D9318
:104730009D932F5F243159F74FBF8091E800877F09
:104740008093E8006AE270E0CE0101960E94F71FB4
:104750008091E8008B778093E80057C0C096E7CF40
:104760006091710270917202AE014F5F5F4F0E94C3
:10477000391FBC01892B09F448C09091E800977F4C
:104780009093E80089819A810E945520E1CF80387A
:10479000E1F58091E800877F8093E80080916802CE
:1047A0008093F10045CF811130C090916F0292301B
:1047B00060F58091E800877F8093E800909368021D
:1047C0000E94E82080916802882311F084E005C0EF
:1047D0008091E30087FDFACF81E080936C020E9414
:1047E000BE1D13C080916F02813079F481E0933057
:1047F00009F080E080936A021092E9008091E8005D
:10480000877F8093E8000E94E8208091E80083FF82
:104810000AC08091E800877F8093E8008091EB00D8
:1048200080628093EB00AA960FB6F894DEBF0FBEAD
:10483000CDBFDF91CF911F910895CF9380916C02EE
:104840008823A1F0C091E900CF709091EC00892FEE
:10485000817090FD80E8C82B1092E9008091E800FB
:1048600083FD0E94CB22CF70C093E900CF910895C1
:10487000991B79E004C0991F961708F0961B881FB2
:104880007A95C9F78095089597FB072E16F4009442
:1048900007D077FD09D00E945E2407FC05D03EF4C6
:1048A000909581959F4F0895709561957F4F0895DC
:1048B000EE0FFF1F0590F491E02D0994AA1BBB1B7E
:1048C00051E107C0AA1FBB1FA617B70710F0A61B10
:1048D000B70B881F991F5A95A9F780959095BC0131
:1048E000CD010895FB01DC0104C08D910190801978
:1048F00021F441505040C8F7881B990B0895F9994D
:10490000FECF92BD81BDF89A992780B50895A8E1A0
:10491000B0E042E050E00C94B324262FF999FECF8A
:1049200092BD81BDF89A019700B4021639F01FBA02
:1049300020BD0FB6F894FA9AF99A0FBE089503961F
:10494000272F0E948E240E948D24252F0E948E24C2
:10495000242F0C948E240196272F0E948E240C94D1
:104960008D24DC01CB01FC01F999FECF06C0F2BD1C
:10497000E1BDF89A319600B40D9241505040B8F71D
:104980000895F894FFCFDC07DC070D080D08A00898
:10499000BC083C083C08C7085309620962093A0A86
:1049A0003A0A430A430A450A430A430A430A3A0AAF
:1049B0003A0A4A0A430A430A4A0AF4221C230524F3
:0E49C0001C2305244F2370230524C723D32373
:1049CE00C80007022808641E140A321EBF1CE41C0D
:1049DE00C31C401D3C1DC21C01E200E900EA00B5EB
:1049EE0000B600B700CD008301CC008A019201947D
:1049FE00012102230224022502260227022A02B3E3
:104A0E0000B4006F007000818283E200E900EA00CA
:104A1E00B500B600B700CD008301CC008A0192012B
:104A2E0094012102230224022502260227022A02D1
:104A3E00B300B4006F007000818283F5F6F7313356
:104A4E0032363534C697669490939291F4407B2219
:0C4A5E00E9046E044C04F1030A04230474
:00000001FF
